{
  "contractName": "Incentive",
  "abi": [
    {
      "anonymous": false,
      "inputs": [
        {
          "indexed": true,
          "internalType": "address",
          "name": "client",
          "type": "address"
        },
        {
          "indexed": false,
          "internalType": "uint256",
          "name": "round",
          "type": "uint256"
        },
        {
          "indexed": false,
          "internalType": "uint256",
          "name": "reward",
          "type": "uint256"
        },
        {
          "indexed": false,
          "internalType": "uint256",
          "name": "shapley",
          "type": "uint256"
        }
      ],
      "name": "RoundInfoSubmitted",
      "type": "event"
    },
    {
      "inputs": [
        {
          "internalType": "address",
          "name": "",
          "type": "address"
        },
        {
          "internalType": "uint256",
          "name": "",
          "type": "uint256"
        }
      ],
      "name": "records",
      "outputs": [
        {
          "internalType": "uint256",
          "name": "round",
          "type": "uint256"
        },
        {
          "internalType": "uint256",
          "name": "reward",
          "type": "uint256"
        },
        {
          "internalType": "uint256",
          "name": "shapley",
          "type": "uint256"
        }
      ],
      "stateMutability": "view",
      "type": "function",
      "constant": true
    },
    {
      "inputs": [
        {
          "internalType": "uint256",
          "name": "round",
          "type": "uint256"
        },
        {
          "internalType": "uint256",
          "name": "reward",
          "type": "uint256"
        },
        {
          "internalType": "uint256",
          "name": "shapley",
          "type": "uint256"
        }
      ],
      "name": "submitRoundInfo",
      "outputs": [],
      "stateMutability": "nonpayable",
      "type": "function"
    },
    {
      "inputs": [
        {
          "internalType": "address",
          "name": "client",
          "type": "address"
        }
      ],
      "name": "getClientRecordCount",
      "outputs": [
        {
          "internalType": "uint256",
          "name": "",
          "type": "uint256"
        }
      ],
      "stateMutability": "view",
      "type": "function",
      "constant": true
    },
    {
      "inputs": [
        {
          "internalType": "address",
          "name": "client",
          "type": "address"
        }
      ],
      "name": "getLatestRecord",
      "outputs": [
        {
          "internalType": "uint256",
          "name": "",
          "type": "uint256"
        },
        {
          "internalType": "uint256",
          "name": "",
          "type": "uint256"
        },
        {
          "internalType": "uint256",
          "name": "",
          "type": "uint256"
        }
      ],
      "stateMutability": "view",
      "type": "function",
      "constant": true
    }
  ],
  "bytecode": "0x6080604052348015600e575f5ffd5b506105d08061001c5f395ff3fe608060405234801561000f575f5ffd5b506004361061004a575f3560e01c806320ad021c1461004e5780632f63bd6a1461006a57806382a6c0ac1461009c578063e2d9a538146100ce575b5f5ffd5b6100686004803603810190610063919061039d565b6100fe565b005b610084600480360381019061007f9190610447565b6101f0565b60405161009393929190610481565b60405180910390f35b6100b660048036038101906100b191906104b6565b6102df565b6040516100c593929190610481565b60405180910390f35b6100e860048036038101906100e39190610447565b61031e565b6040516100f591906104f4565b60405180910390f35b5f5f3373ffffffffffffffffffffffffffffffffffffffff1673ffffffffffffffffffffffffffffffffffffffff1681526020019081526020015f20604051806060016040528085815260200184815260200183815250908060018154018082558091505060019003905f5260205f2090600302015f909190919091505f820151815f0155602082015181600101556040820151816002015550503373ffffffffffffffffffffffffffffffffffffffff167fc2324230403456a18d8330f90ad91f3b16667f6fe83c91bcabe2f8232f5515c18484846040516101e393929190610481565b60405180910390a2505050565b5f5f5f5f5f5f8673ffffffffffffffffffffffffffffffffffffffff1673ffffffffffffffffffffffffffffffffffffffff1681526020019081526020015f2060015f5f8873ffffffffffffffffffffffffffffffffffffffff1673ffffffffffffffffffffffffffffffffffffffff1681526020019081526020015f208054905061027c919061053a565b8154811061028d5761028c61056d565b5b905f5260205f2090600302016040518060600160405290815f8201548152602001600182015481526020016002820154815250509050805f015181602001518260400151935093509350509193909250565b5f602052815f5260405f2081815481106102f7575f80fd5b905f5260205f2090600302015f9150915050805f0154908060010154908060020154905083565b5f5f5f8373ffffffffffffffffffffffffffffffffffffffff1673ffffffffffffffffffffffffffffffffffffffff1681526020019081526020015f20805490509050919050565b5f5ffd5b5f819050919050565b61037c8161036a565b8114610386575f5ffd5b50565b5f8135905061039781610373565b92915050565b5f5f5f606084860312156103b4576103b3610366565b5b5f6103c186828701610389565b93505060206103d286828701610389565b92505060406103e386828701610389565b9150509250925092565b5f73ffffffffffffffffffffffffffffffffffffffff82169050919050565b5f610416826103ed565b9050919050565b6104268161040c565b8114610430575f5ffd5b50565b5f813590506104418161041d565b92915050565b5f6020828403121561045c5761045b610366565b5b5f61046984828501610433565b91505092915050565b61047b8161036a565b82525050565b5f6060820190506104945f830186610472565b6104a16020830185610472565b6104ae6040830184610472565b949350505050565b5f5f604083850312156104cc576104cb610366565b5b5f6104d985828601610433565b92505060206104ea85828601610389565b9150509250929050565b5f6020820190506105075f830184610472565b92915050565b7f4e487b71000000000000000000000000000000000000000000000000000000005f52601160045260245ffd5b5f6105448261036a565b915061054f8361036a565b92508282039050818111156105675761056661050d565b5b92915050565b7f4e487b71000000000000000000000000000000000000000000000000000000005f52603260045260245ffdfea26469706673582212209e463facf94a220a122042e68a3516cf90bf82cbce525779d74e95cb402870e764736f6c634300081d0033",
  "immutableReferences": {},
  "source": "// SPDX-License-Identifier: MIT\npragma solidity ^0.8.0;\n\ncontract Incentive {\n    struct RoundInfo {\n        uint256 round;\n        uint256 reward;\n        uint256 shapley;\n    }\n\n    mapping(address => RoundInfo[]) public records;\n\n    // Define the event for logging\n    event RoundInfoSubmitted(address indexed client, uint256 round, uint256 reward, uint256 shapley);\n\n    function submitRoundInfo(uint256 round, uint256 reward, uint256 shapley) public {\n        records[msg.sender].push(RoundInfo(round, reward, shapley));\n        \n        // Emit the event to log the submission\n        emit RoundInfoSubmitted(msg.sender, round, reward, shapley);\n    }\n\n    function getClientRecordCount(address client) public view returns (uint) {\n        return records[client].length;\n    }\n\n    function getLatestRecord(address client) public view returns (uint, uint, uint) {\n        RoundInfo memory r = records[client][records[client].length - 1];\n        return (r.round, r.reward, r.shapley);\n    }\n}\n   ",
  "sourcePath": "/home/riyansh/IncentiveProject/contracts/Incentive.sol",
  "compiler": {
    "name": "solc",
    "version": "0.8.29+commit.ab55807c.Emscripten.clang"
  },
  "schemaVersion": "3.4.16",
  "updatedAt": "2025-04-27T06:34:23.730Z",
  "networkType": "ethereum",
  "devdoc": {
    "kind": "dev",
    "methods": {},
    "version": 1
  },
  "userdoc": {
    "kind": "user",
    "methods": {},
    "version": 1
  }
}